:100000000C9434000C9451000C9451000C94510049
:100010000C9451000C9451000C946A020C94510001
:100020000C9451000C9451000C9451000C9451000C
:100030000C9451000C9451000C9451000C945100FC
:100040000C9451000C9451000C944B040C945100EE
:100050000C9451000C9451000C9451000C945100DC
:100060000C9451000C94510011241FBECFEFD8E026
:10007000DEBFCDBF11E0A0E0B1E0E0EEF0E102C0F4
:1000800005900D92A036B107D9F721E0A0E6B1E0C6
:1000900001C01D92AA37B207E1F70E945F050C94D8
:1000A0006E080C9400009091C00095FFFCCF8093E7
:1000B000C6000895CF93DF93EC018991882319F04E
:1000C0000E945300FACFDF91CF910895CF93DF9331
:1000D000C82F843628F164E60E94EC06D82F80E30E
:1000E0008D0F0E94530084E6D89FC0191124CA3096
:1000F00070F08C2F6AE00E94EC06D82F80E38D0F01
:100100000E9453008AE0D89FC019112403C080E3E5
:100110000E94530080E38C0FDF91CF910C94530029
:100120008A3038F7F7CFCF93C82F90E024E0959529
:1001300087952A95E1F78A3014F0895C01C0805DCB
:100140000E9453008C2F8F708A3014F0895C01C09C
:10015000805DCF910C9453001F93CF93DF938FE179
:1001600091E00E945A008DE00E9453008AE00E94B4
:100170005300C0E0D1E010E0812F0E9466008AE3C6
:100180000E94530088810E94930080E20E945300E5
:1001900089810E94930080E20E9453008A810E941C
:1001A000660080E20E9453008B810E94660080E21C
:1001B0000E9453008C810E9466008DE00E945300D3
:1001C0008AE00E9453001F5F25961530A9F6DF9143
:1001D000CF911F91089580917601909177010895B4
:1001E00080E090E00895880F991F0197F1F7089536
:1001F000FC01F695E795F695E7959C01232F3327AB
:10020000269526952695E20FF31FE80FF91FEE0FAE
:10021000FF1F309711F03197F1F720ED37E001978C
:1002200020F0F9013197F1F7FACF089594E990930E
:10023000BC00882389F08CE32AE030E09091BC0078
:1002400094FD0AC0815021F40E94750481E0089554
:10025000F9013197F1F7F2CF80E00895CF93C82FDD
:100260000E947B04CC0FC093BB0084E88093BC0049
:100270008CE32AE030E09091BC0097FD09C08150EA
:1002800019F40E94750414C0F9013197F1F7F3CF06
:100290008091B900C82FC87FC83151F0C03441F0F7
:1002A000C03241F0C83431F00E9475048C2F03C075
:1002B00081E001C080E0CF910895EF92FF920F930B
:1002C0001F93CF93DF93182FEB017A01209711F43E
:1002D000C1E0D0E00E947B04811108C0812F880F0B
:1002E0008F5F0E949E04811106C009C00E947B049A
:1002F0008823A1F324C0813011F585E020C0219727
:1003000087012097A9F480E00E94F604813011F45F
:1003100086E015C0883599F48091BB00F80181937F
:100320008F01219770F784E98093BC0080E007C0BB
:1003300081E00E94F604813059F3803569F3DF9142
:10034000CF911F910F91FF90EF900895CF92DF9280
:10035000EF92FF920F931F93CF93DF93182FD62E18
:10036000C72EEA017901209711F4C1E0D0E00E9484
:100370007B04811107C0110F812F0E949E048111FF
:1003800006C00AC00E947B048823A9F347C08130BD
:1003900009F044C082E042C0002349F08C2D0E9445
:1003A000CB04882321F08130C9F583E037C08D2D3F
:1003B0000E94CB048111F7CF0E947B04882321F097
:1003C000813061F584E02AC081E0810F0E949E04A3
:1003D000882321F0813011F585E020C02197870125
:1003E0002097A9F480E00E94F604813011F486E0A1
:1003F00015C0883599F48091BB00F80181938F0175
:10040000219770F784E98093BC0080E007C081E009
:100410000E94F604813059F3803569F3DF91CF9162
:100420001F910F91FF90EF90DF90CF900895CF92A2
:10043000DF92EF92FF920F931F93CF93DF93C82E1B
:10044000EB017A01D22E132F0E947B04811107C089
:100450008C2D880F0E949E04811106C009C00E9445
:100460007B048823A9F32DC0813059F582E029C08F
:10047000002349F08D2F0E94CB04882321F0813086
:1004800001F583E01EC08C2F0E94CB04882321F04D
:100490008130B9F484E015C0CD2DD12F8E010E0D21
:1004A0001F1DC017D10749F089910E94CB048823F2
:1004B000C1F3813031F485E004C084E98093BC004D
:1004C00080E0DF91CF911F910F91FF90EF90DF902F
:1004D000CF9008951F920F920FB60F9211248F9311
:1004E0000FB6F894A89580916000886180936000B1
:1004F000109260000FBE8F910F900FBE0F901F9053
:1005000018950FB6F894A895909160009861909313
:100510006000109260000FBE83FD02C098E001C031
:1005200098E28770982B88E10FB6F894A89580938D
:1005300060000FBE90936000FFCFCF93C0917A0010
:1005400020917A002F7720937A0020916400216017
:100550002093640020916400246020936400209123
:1005600064002260209364000E94170583B7817F96
:1005700083BFF89483B7816083BF7894889583B7ED
:100580008E7F83BF7894C7FF0AC0809164008E7FFE
:100590008093640080917A00806880937A008091D3
:1005A00064008B7F80936400809164008D7F8093D2
:1005B0006400CF91089580937C0084E190E00197DE
:1005C000F1F786EC80937A0080917A0086FDFCCF6B
:1005D000209178008091790090E0982F8827820FF1
:1005E000911D0895CF93DF93D0917C00C0917A0044
:1005F000C07851F4809164008E7F80936400809174
:100600007A00806880937A008EE480937C0084E195
:1006100090E00E94F80080917A00806480937A00D4
:1006200080917A0086FDFCCF20917800909179002E
:10063000D0937C00C1110AC080917A008F7780939B
:100640007A008091640081608093640030E0392BEF
:10065000032E000C440B550B62E977EB81E090E030
:100660000E940C07C901DF91CF910895BF92CF92EC
:10067000DF92EF92FF920F931F93CF93DF93882324
:1006800009F45BC0D0917A00D07851F49091640065
:100690009E7F9093640090917A00906890937A0086
:1006A0008695C0E0882319F0CF5F8695FBCF7A014D
:1006B0008B01C05C8C2F0E94DB0284E190E00E94E1
:1006C000F8008C2F0E94DB028C2F0E94DB026C0151
:1006D00085E0B82EBA94BB2041F08C2F0E94DB023B
:1006E0008C159D05B8F76C01F5CF0E94F2029C01B4
:1006F000C29EC001C39E900DD29E900D11246FEF3B
:1007000073E00E94F806D1110AC080917A008F77B9
:1007100080937A00809164008160809364000E0D64
:100720001F1D069FC001079F900D169F900D11245D
:10073000B7010E94F806CB0102C080E090E0DF9193
:10074000CF911F910F91FF90EF90DF90CF90BF90CE
:100750000895EF92FF920F931F93CF93DF93E09052
:100760007C0010917A00107851F4909164009E7F83
:100770009093640090917A00906890937A008770CB
:10078000806480937C0009E0D0E00150C9F08BE0E8
:10079000F82E0E944705C82F0E944705880F982F02
:1007A0009C2B913039F0923039F0FA94F110F1CF5E
:1007B000927003C090E001C091E0DD0FD90FE5CF4A
:1007C000E0927C0011110AC080917A008F778093AB
:1007D0007A00809164008160809364008D2FDF91A6
:1007E000CF911F910F91FF90EF900895CF92DF92DC
:1007F000EF92FF920F931F93CF93DF93E0907C00D3
:1008000010917A00107851F4809164008E7F80936B
:10081000640080917A00806880937A000AE0D0E0DA
:100820009EE4D92E28ECC22E0150E9F08BE0F82E80
:10083000D0927C000E944705C82FC0927C000E9485
:100840004705880F982F9C2B913039F0923039F062
:10085000FA94F110EDCF927003C090E001C091E0E6
:10086000DD0FD90FE1CFE0927C0011110AC0809119
:100870007A008F7780937A00809164008160809302
:1008800064008D2FDF91CF911F910F91FF90EF901A
:10089000DF90CF9008951F920F920FB60F92112400
:1008A0008F939F93EF93FF938091C6008A3011F04E
:1008B0008D3021F481E0809360010EC09091610140
:1008C000943150F4E091610191E09E0F90936101A9
:1008D000F0E0EE59FE4F8083FF91EF919F918F9151
:1008E0000F900FBE0F901F901895ECEBF0E0108268
:1008F00084E48083089584EA8093BC008CE32AE03A
:1009000030E09091BC0097FD0AC0815021F40E9414
:10091000750481E00895F9013197F1F7F2CF8091E4
:10092000B900887F883041F0803131F0883329F474
:100930000E94750488E3089580E00895CF93809322
:10094000BB0084E88093BC008CE32AE030E0909107
:10095000BC0097FD0AC0815021F40E94750481E01B
:1009600018C0F9013197F1F7F2CFC091B900C87FF3
:10097000C83171F0C03461F0C03211F0C83421F4D4
:1009800081E00E94160102C00E9475048C2F01C0F4
:1009900080E0CF910895CF938093BB0084E880934B
:1009A000BC008CE32AE030E09091BC0097FD0AC0C7
:1009B000815021F40E94750481E016C0F90131973D
:1009C000F1F7F2CF8091B900C82FC87FC83259F033
:1009D000C03329F481E00E94160180E305C00E9423
:1009E00075048C2F01C080E0CF910895882311F009
:1009F00084EC01C084E88093BC008CE32AE030E002
:100A00009091BC0097FD0AC0815021F40E947504AA
:100A100081E00895F9013197F1F7F2CF8091B900A3
:100A2000887F883319F40E94750488E308958A301A
:100A30009105B1F083FD02C028E001C028E2877073
:100A4000822B98E10FB6F894A895909360000FBEA2
:100A500080936000809160008064809360000895BE
:100A60000FB6F894A895809160008861809360002B
:100A7000109260000FBE0895EAE7F0E08081806484
:100A80008083809178009091790081700895CF9350
:100A9000DF93DAE00E943C05C82F0E943C05880FD6
:100AA0008C2B813031F0823031F0D15099F7817048
:100AB00003C080E001C081E0DF91CF910895CF9322
:100AC000DF931F92CDB7DEB714BE0FB6F894A8958A
:100AD00080916000886180936000109260000FBE7A
:100AE00080917A008F7780937A0080916400816092
:100AF0008093640080B7806880BF809164008062CA
:100B00008093640080916400886080936400809189
:100B1000640080648093640085B7806685BF8F7DA4
:100B200085BF7894209A289885B1817C85B984B155
:100B30008E6384B98AB187708AB9F8941092610182
:100B400010926001789488E18093C10086E08093E0
:100B5000C2008CE08093C4001092C5008091C10057
:100B600080688093C10085E00E94660087E291E082
:100B70000E945A008DE00E9453008AE00E945300B8
:100B80000E94AC0089B1887FD82E00E015E0EE24E9
:100B9000E39489B1887FF82E8FE291E00E945A0099
:100BA0008F2D0E94930080E20E94530083E391E026
:100BB0000E945A0085B18E730E9493008DE00E94BE
:100BC00053008AE00E945300DF1409F493C00E948E
:100BD000AC00198289810E9466008DE00E9453005A
:100BE0008AE00E945300A981E9811A9FD001112453
:100BF000A050BF4F9C919F211E9FF0011124E050F7
:100C0000FF4F80818D21981709F46CC0E9811E9FE8
:100C1000F0011124E050FF4F8381811159C088E316
:100C200091E00E945A0089810E946600E9811E9F1E
:100C3000F0011124E050FF4F8281E98195B11E9FA0
:100C4000F0011124E050FF4F81110DC08181892BEB
:100C500085B9E9811E9FF0011124E050FF4FE28227
:100C60008EE391E00DC081818095892385B9E9816A
:100C70001E9FF0011124E050FF4F128285E491E0A5
:100C80000E945A008DE00E9453008AE00E945300A7
:100C9000E981A9811E9FF0011124E050FF4F1A9FA6
:100CA000D0011124A050BF4F14968C918383E98109
:100CB0001E9FF0011124E050FF4F8381081790F42C
:100CC000E9811E9FF0011124E050FF4F03810AC00B
:100CD0008DE491E00E945A008DE00E9453008AE06A
:100CE0000E94530089818F5F8983853008F472CF19
:100CF0000E94AC0081E090E00E94F80086E090E065
:100D00000E94170583B7817F846083BFF89483B7FF
:100D1000816083BF85B7806685BF8F7D85BF7894EE
:100D2000889583B78E7F83BF7894002339F1015073
:100D300085E591E00E945A00802F0E9466008DE0B8
:100D40000E9453008AE00E9453001982E9811E9F8D
:100D5000F0011124E050FF4F8381882341F0E981A5
:100D60001E9FF0011124E050FF4F81508383898141
:100D70008F5F8983853050F30E94AC0080916001C1
:100D8000811102C0DF2C05CF289A8EE30E94530008
:100D9000A0906101B12C82E6C82E81E0D82EC60158
:100DA000825691408A159B0530F4F60181916F01BE
:100DB0000E945300F4CF8DE00E9453008AE00E940D
:100DC0005300F8941092610110926001789480E3CE
:100DD00095E70E94F800D6CF991B79E004C0991FCF
:100DE000961708F0961B881F7A95C9F78095089585
:100DF000AA1BBB1B51E107C0AA1FBB1FA617B70741
:100E000010F0A61BB70B881F991F5A95A9F780955C
:100E10009095BC01CD010895052E97FB1EF400941A
:100E20000E94230757FD07D00E942B0707FC03D021
:100E30004EF40C94230750954095309521953F4FE3
:100E40004F4F5F4F089590958095709561957F4FB6
:100E50008F4F9F4F0895A1E21A2EAA1BBB1BFD01C5
:100E60000DC0AA1FBB1FEE1FFF1FA217B307E40789
:100E7000F50720F0A21BB30BE40BF50B661F771FE1
:100E8000881F991F1A9469F76095709580959095C1
:100E90009B01AC01BD01CF0108950F931F93CF9328
:100EA000DF938230910510F482E090E0E0917801C8
:100EB000F091790120E030E0A0E0B0E0309719F146
:100EC000408151810281138148175907C8F0841766
:100ED000950769F4109731F012960C9312971396B8
:100EE0001C9327C0009378011093790122C021152B
:100EF000310519F04217530718F49A01BD01EF01AB
:100F0000DF01F801DBCF21153105F9F0281B390B82
:100F10002430310580F48A819B816115710521F0AF
:100F2000FB019383828304C09093790180937801BD
:100F3000FE01329644C0FE01E20FF31F81939193AC
:100F400022503109398328833AC0209176013091AB
:100F50007701232B41F420911B0130911C01309328
:100F60007701209376012091190130911A01211502
:100F7000310541F42DB73EB740911D0150911E013E
:100F8000241B350BE0917601F0917701E217F3070E
:100F9000A0F42E1B3F0B2817390778F0AC014E5FE9
:100FA0005F4F2417350748F04E0F5F1F50937701AE
:100FB000409376018193919302C0E0E0F0E0CF018D
:100FC000DF91CF911F910F910895CF93DF930097F9
:100FD00009F481C0FC01329713821282A09178013A
:100FE000B0917901109781F420813181820F931F94
:100FF00020917601309177012817390751F5F09348
:101000007701E093760167C0ED0120E030E0CE1774
:10101000DF0740F44A815B819E0141155105F1F0E3
:10102000EA01F5CFD383C28340815181840F951F9C
:10103000C817D90759F488819981840F951F0296A2
:10104000918380838A819B819383828321153105DB
:1010500029F4F0937901E09378013DC0E901FB8325
:10106000EA8349915991C40FD51FEC17FD0761F42C
:1010700080819181840F951F0296E901998388836D
:10108000828193819B838A83E0E0F0E012968D91C8
:101090009C911397009719F0FD01DC01F7CF8D911A
:1010A0009C9111979D012E5F3F4F820F931F2091BE
:1010B0007601309177012817390769F4309729F4C0
:1010C000109279011092780102C013821282B093BB
:1010D0007701A0937601DF91CF910895F894FFCF27
:1010E00080200000032002000003400400000308E9
:1010F00008000003101000000300007A0120003DEA
:101100003D3D3D3D3D3D00206C616D70732E0049BD
:101110006E3A004F75743A004C616D702000206982
:1011200073206F6E00206973206F666600536B69D1
:10113000707065640074696D6550617573653A001F
:00000001FF
