:100000000C9434000C9451000C9451000C94510049
:100010000C9451000C9451000C94E5010C94510087
:100020000C9451000C9451000C9451000C9451000C
:100030000C9451000C9451000C9451000C945100FC
:100040000C9451000C9451000C94C6030C94510074
:100050000C9451000C9451000C9451000C945100DC
:100060000C9451000C94510011241FBECFEFD8E026
:10007000DEBFCDBF11E0A0E0B1E0EAE1FEE002C0EA
:1000800005900D92A835B107D9F721E0A8E5B1E0B8
:1000900001C01D92A237B207E1F70E94DA040C9466
:1000A0000B070C9400009091C00095FFFCCF80934B
:1000B000C6000895CF93DF93EC018991882319F04E
:1000C0000E945300FACFDF91CF91089580916E0185
:1000D00090916F01089580E090E00895880F991F36
:1000E0000197F1F70895FC01F695E795F695E795E8
:1000F0009C01232F3327269526952695E20FF31F83
:10010000E80FF91FEE0FFF1F309711F03197F1F74D
:1001100020ED37E0019720F0F9013197F1F7FACFA0
:10012000089594E99093BC00882389F08CE32AE039
:1001300030E09091BC0094FD0AC0815021F40E94EF
:10014000F00381E00895F9013197F1F7F2CF80E0F3
:100150000895CF93C82F0E94F603CC0FC093BB0025
:1001600084E88093BC008CE32AE030E09091BC00EE
:1001700097FD09C0815019F40E94F00314C0F901E1
:100180003197F1F7F3CF8091B900C82FC87FC831FC
:1001900051F0C03441F0C03241F0C83431F00E9417
:1001A000F0038C2F03C081E001C080E0CF9108955F
:1001B000EF92FF920F931F93CF93DF93182FEB01D2
:1001C0007A01209711F4C1E0D0E00E94F60381117A
:1001D00008C0812F880F8F5F0E941904811106C00B
:1001E00009C00E94F6038823A1F324C0813011F5D1
:1001F00085E020C0219787012097A9F480E00E9424
:100200007104813011F486E015C0883599F480912D
:10021000BB00F80181938F01219770F784E98093E7
:10022000BC0080E007C081E00E947104813059F376
:10023000803569F3DF91CF911F910F91FF90EF907F
:100240000895CF92DF92EF92FF920F931F93CF9377
:10025000DF93182FD62EC72EEA017901209711F4CB
:10026000C1E0D0E00E94F603811107C0110F812F79
:100270000E941904811106C00AC00E94F603882357
:10028000A9F347C0813009F044C082E042C0002396
:1002900049F08C2D0E944604882321F08130C9F555
:1002A00083E037C08D2D0E9446048111F7CF0E9454
:1002B000F603882321F0813061F584E02AC081E0D3
:1002C000810F0E941904882321F0813011F585E007
:1002D00020C0219787012097A9F480E00E94710433
:1002E000813011F486E015C0883599F48091BB0007
:1002F000F80181938F01219770F784E98093BC0006
:1003000080E007C081E00E947104813059F380359C
:1003100069F3DF91CF911F910F91FF90EF90DF90E4
:10032000CF900895CF92DF92EF92FF920F931F9399
:10033000CF93DF93C82EEB017A01D22E132F0E94A8
:10034000F603811107C08C2D880F0E9419048111BA
:1003500006C009C00E94F6038823A9F32DC081308E
:1003600059F582E029C0002349F08D2F0E944604F0
:10037000882321F0813001F583E01EC08C2F0E947C
:100380004604882321F08130B9F484E015C0CD2DD6
:10039000D12F8E010E0D1F1DC017D10749F0899175
:1003A0000E9446048823C1F3813031F485E004C003
:1003B00084E98093BC0080E0DF91CF911F910F9181
:1003C000FF90EF90DF90CF9008951F920F920FB69D
:1003D0000F9211248F930FB6F894A8958091600026
:1003E000886180936000109260000FBE8F910F9023
:1003F0000FBE0F901F9018950FB6F894A895909186
:100400006000986190936000109260000FBE83FDC1
:1004100002C098E001C098E28770982B88E10FB67F
:10042000F894A895809360000FBE90936000FFCF72
:10043000CF93C0917A0020917A002F7720937A0091
:100440002091640021602093640020916400246066
:1004500020936400209164002260209364000E9435
:10046000920483B7817F83BFF89483B7816083BF91
:100470007894889583B78E7F83BF7894C7FF0AC02E
:10048000809164008E7F8093640080917A00806800
:1004900080937A00809164008B7F809364008091C8
:1004A00064008D7F80936400CF91089580937C00D9
:1004B00084E190E00197F1F786EC80937A008091D7
:1004C0007A0086FDFCCF209178008091790090E041
:1004D000982F8827820F911D0895CF93DF93D09195
:1004E0007C00C0917A00C07851F4809164008E7FC6
:1004F0008093640080917A00806880937A008EE413
:1005000080937C0084E190E00E94730080917A00E7
:10051000806480937A0080917A0086FDFCCF2091E0
:10052000780090917900D0937C00C1110AC080912D
:100530007A008F7780937A00809164008160809345
:10054000640030E0392B032E000C440B550B62E99C
:1005500077EB81E090E00E94A905C901DF91CF917E
:100560000895BF92CF92DF92EF92FF920F931F9365
:10057000CF93DF93882309F45BC0D0917A00D078C1
:1005800051F4909164009E7F9093640090917A0062
:10059000906890937A008695C0E0882319F0CF5F29
:1005A0008695FBCF7A018B01C05C8C2F0E9456028E
:1005B00084E190E00E9473008C2F0E9456028C2FE1
:1005C0000E9456026C0185E0B82EBA94BB2041F01F
:1005D0008C2F0E9456028C159D05B8F76C01F5CF43
:1005E0000E946D029C01C29EC001C39E900DD29ECE
:1005F000900D11246FEF73E00E949505D1110AC090
:1006000080917A008F7780937A0080916400816076
:10061000809364000E0D1F1D069FC001079F900D63
:10062000169F900D1124B7010E949505CB0102C0C1
:1006300080E090E0DF91CF911F910F91FF90EF90BC
:10064000DF90CF90BF900895EF92FF920F931F938A
:10065000CF93DF93E0907C0010917A00107851F4F2
:10066000909164009E7F9093640090917A009068CE
:1006700090937A008770806480937C0009E0D0E0DA
:100680000150C9F08BE0F82E0E94C204C82F0E94CE
:10069000C204880F982F9C2B913039F0923039F09A
:1006A000FA94F110F1CF927003C090E001C091E094
:1006B000DD0FD90FE5CFE0927C0011110AC08091C7
:1006C0007A008F7780937A008091640081608093B4
:1006D00064008D2FDF91CF911F910F91FF90EF90CC
:1006E0000895CF92DF92EF92FF920F931F93CF93D3
:1006F000DF93E0907C0010917A00107851F48091A3
:1007000064008E7F8093640080917A00806880937B
:100710007A000AE0D0E09EE4D92E28ECC22E0150E7
:10072000E9F08BE0F82ED0927C000E94C204C82F22
:10073000C0927C000E94C204880F982F9C2B91309D
:1007400039F0923039F0FA94F110EDCF927003C085
:1007500090E001C091E0DD0FD90FE1CFE0927C0085
:1007600011110AC080917A008F7780937A0080916E
:1007700064008160809364008D2FDF91CF911F9181
:100780000F91FF90EF90DF90CF9008951F920F92FE
:100790000FB60F9211248F939F93EF93FF93809145
:1007A000C6008A3011F08D3021F481E08093580129
:1007B0000EC090915901943150F4E091590191E0AB
:1007C0009E0F90935901F0E0E65AFE4F8083FF910F
:1007D000EF919F918F910F900FBE0F901F901895E2
:1007E000ECEBF0E0108284E48083089584EA809347
:1007F000BC008CE32AE030E09091BC0097FD0AC079
:10080000815021F40E94F00381E00895F9013197AD
:10081000F1F7F2CF8091B900887F883041F08031C4
:1008200031F0883329F40E94F00388E3089580E0D2
:100830000895CF938093BB0084E88093BC008CE341
:100840002AE030E09091BC0097FD0AC0815021F46D
:100850000E94F00381E018C0F9013197F1F7F2CF5F
:10086000C091B900C87FC83171F0C03461F0C032A6
:1008700011F0C83421F481E00E94910002C00E946E
:10088000F0038C2F01C080E0CF910895CF93809327
:10089000BB0084E88093BC008CE32AE030E09091B8
:1008A000BC0097FD0AC0815021F40E94F00381E052
:1008B00016C0F9013197F1F7F2CF8091B900C82F36
:1008C000C87FC83259F0C03329F481E00E949100FA
:1008D00080E305C00E94F0038C2F01C080E0CF911F
:1008E0000895882311F084EC01C084E88093BC0053
:1008F0008CE32AE030E09091BC0097FD0AC0815063
:1009000021F40E94F00381E00895F9013197F1F795
:10091000F2CF8091B900887F883319F40E94F003E8
:1009200088E308958A309105B1F083FD02C028E084
:1009300001C028E28770822B98E10FB6F894A89541
:10094000909360000FBE809360008091600080648F
:100950008093600008950FB6F894A8958091600088
:10096000886180936000109260000FBE0895EAE7EE
:10097000F0E080818064808380917800909179009C
:1009800081700895CF93DF93DAE00E94B704C82FF7
:100990000E94B704880F8C2B813031F0823031F007
:1009A000D15099F7817003C080E001C081E0DF91F0
:1009B000CF91089514BE0FB6F894A8958091600069
:1009C000886180936000109260000FBE80917A0071
:1009D0008F7780937A0080916400816080936400B7
:1009E00080B7806880BF80916400806280936400DB
:1009F00080916400886080936400809164008064CA
:100A00008093640085B7806685BF8F7D85BF7894AD
:100A1000209A289885B1817C85B984B18E6384B988
:100A20008AB187708AB9F8941092590110925801CE
:100A3000789488E18093C10086E08093C2008CE0C6
:100A40008093C4001092C5008091C100806880939B
:100A5000C10086E091E00E945A008DE00E945300A0
:100A60008AE00E9453008DE091E00E945A008DE0E0
:100A70000E9453008AE00E94530084E191E00E94AA
:100A80005A008DE00E9453008AE00E9453008BE1DF
:100A900091E00E945A008DE00E9453008AE00E947B
:100AA0005300289A81E090E00E94730086E090E075
:100AB0000E94920483B7817F846083BFF89483B7D8
:100AC000816083BF85B7806685BF8F7D85BF789441
:100AD000889583B78E7F83BF7894289888EE93E0BB
:100AE0000E94730080915801882389F28EE30E944E
:100AF00053000091590110E0CAE5D1E0CE018A55BA
:100B000091408017910720F489910E945300F6CFFD
:100B10008DE00E9453008AE00E945300F8941092E6
:100B20005901109258017894B2CFAA1BBB1B51E116
:100B300007C0AA1FBB1FA617B70710F0A61BB70B4D
:100B4000881F991F5A95A9F780959095BC01CD01F2
:100B50000895052E97FB1EF400940E94C00557FDD2
:100B600007D00E94C80507FC03D04EF40C94C005C2
:100B700050954095309521953F4F4F4F5F4F0895C9
:100B800090958095709561957F4F8F4F9F4F0895F9
:100B9000A1E21A2EAA1BBB1BFD010DC0AA1FBB1F81
:100BA000EE1FFF1FA217B307E407F50720F0A21BF3
:100BB000B30BE40BF50B661F771F881F991F1A9460
:100BC00069F760957095809590959B01AC01BD018A
:100BD000CF0108950F931F93CF93DF938230910538
:100BE00010F482E090E0E0917001F091710120E05A
:100BF00030E0A0E0B0E0309719F1408151810281EE
:100C0000138148175907C8F08417950769F410979E
:100C100031F012960C93129713961C9327C00093F1
:100C200070011093710122C02115310519F042178E
:100C3000530718F49A01BD01EF01DF01F801DBCF82
:100C400021153105F9F0281B390B2430310580F4CA
:100C50008A819B816115710521F0FB019383828359
:100C600004C09093710180937001FE01329644C0DC
:100C7000FE01E20FF31F81939193225031093983D2
:100C800028833AC020916E0130916F01232B41F4EB
:100C9000209102013091030130936F0120936E0186
:100CA00020910001309101012115310541F42DB74A
:100CB0003EB74091040150910501241B350BE09192
:100CC0006E01F0916F01E217F307A0F42E1B3F0BAA
:100CD0002817390778F0AC014E5F5F4F24173507AE
:100CE00048F04E0F5F1F50936F0140936E01819348
:100CF000919302C0E0E0F0E0CF01DF91CF911F912E
:100D00000F910895CF93DF93009709F481C0FC0100
:100D1000329713821282A0917001B09171011097E5
:100D200081F420813181820F931F20916E013091D7
:100D30006F012817390751F5F0936F01E0936E01A9
:100D400067C0ED0120E030E0CE17DF0740F44A81B4
:100D50005B819E0141155105F1F0EA01F5CFD38386
:100D6000C28340815181840F951FC817D90759F458
:100D700088819981840F951F0296918380838A814F
:100D80009B81938382832115310529F4F0937101AE
:100D9000E09370013DC0E901FB83EA8349915991D9
:100DA000C40FD51FEC17FD0761F480819181840F7A
:100DB000951F0296E90199838883828193819B83A1
:100DC0008A83E0E0F0E012968D919C911397009752
:100DD00019F0FD01DC01F7CF8D919C9111979D01D8
:100DE0002E5F3F4F820F931F20916E0130916F0154
:100DF0002817390769F4309729F41092710110927D
:100E0000700102C013821282B0936F01A0936E0131
:0A0E1000DF91CF910895F894FFCF11
:100E1A0000007201200053746172743100537461CE
:100E2A007274320053746172743300313233343560
:100E3A00363738396C6B6C6B6C6B616C736B616CCD
:100E4A003B73616C3B6A3B616C6A3B61736A3B6CE6
:100E5A00616A3B6A613B736C6A613B6A3B6C6173B2
:080E6A006A733B6C616A000031
:00000001FF
