:100000000C9434000C943E000C943E000C943E0082
:100010000C943E000C943E000C943E000C943E0068
:100020000C943E000C943E000C943E000C943E0058
:100030000C943E000C943E000C943E000C943E0048
:100040000C943E000C943E000C943E000C943E0038
:100050000C943E000C943E000C943E000C943E0028
:100060000C943E000C943E0011241FBECFEFD8E04C
:10007000DEBFCDBF0E9463000C947A000C94000098
:10008000880F991F0197F1F70895FC01F695E79500
:10009000F695E7959C01232F3327269526952695DF
:1000A000E20FF31FE80FF91FEE0FFF1F309711F05B
:1000B0003197F1F720ED37E0019720F0F901319702
:1000C000F1F7FACF08950FB6F894A89580916000E3
:1000D000886180936000109260000FBE209A289A79
:1000E00084EF91E00E944500289884EF91E00E94FF
:0800F0004500F5CFF894FFCFA5
:00000001FF
