:100000000C9434000C943E000C943E000C943E0082
:100010000C943E000C943E000C943E000C943E0068
:100020000C943E000C943E000C943E000C943E0058
:100030000C943E000C943E000C943E000C943E0048
:100040000C943E000C943E000C943E000C943E0038
:100050000C943E000C943E000C943E000C943E0028
:100060000C943E000C943E0011241FBECFEFD8E04C
:10007000DEBFCDBF0E9467000C947E000C94000090
:10008000880F991F880F991F0197F1F70895FC01B8
:10009000F695E795F695E7959C01232F332726954E
:1000A00026952695E20FF31FE80FF91FEE0FFF1FAD
:1000B000EE0FFF1F309711F03197F1F720EA3FE084
:1000C000019720F0F9013197F1F7FACF08950FB6B3
:1000D000F894A895809160008861809360001092E8
:1000E00060000FBE259A2D9A84EF91E00E94470090
:1000F0002D9884EF91E00E944700F5CFF894FFCF50
:00000001FF
